:100000000EC020C01FC01EC01DC01CC01BC01AC017
:1000100019C018C017C016C015C014C013C01124D1
:100020001FBECFE5D2E0DEBFCDBF10E0A0E6B0E05E
:10003000E0E6F4E002C005900D92A436B107D9F7CE
:1000400091D00CC2DDCFDF93CF930F92CDB7DEB747
:100050009B01AC01198207C089818F5F8983215080
:100060003040404050402115310541055105A1F770
:100070000F90CF91DF910895DF93CF930F92CDB77B
:10008000DEB7C39A198220E030E089818F5F8983CF
:100090002F5F3F4F83E0283E3807B9F788B3807F52
:1000A00088BB198220E030E089818F5F89832F5FD0
:1000B0003F4F87E220313807B9F70F90CF91DF919A
:1000C0000895DF93CF930F92CDB7DEB7482F28B3B3
:1000D00081E090E0042E02C0880F991F0A94E2F795
:1000E000282B28BB198220E030E089818F5F89832B
:1000F0002F5F3F4F83E0283E3807B9F70CC01982C5
:1001000020E030E089818F5F89832F5F3F4F263069
:100110003105C1F76150662391F728B38EEF90E067
:1001200002C0880F991F4A95E2F7282328BB0F9039
:10013000CF91DF9108950F931F93182F062F681703
:1001400010F4012F162F011749F0ECD0602F70E04A
:100150006F5F7F4F611B710974D0180F812F1F9142
:100160000F910895DF92EF92FF920F931F93DF9309
:10017000CF930F92CDB7DEB78FE087BB18BA81E07F
:100180006EE1D9DF082F2AC083E064E1D4DF182FA5
:1001900080E064EBD0DFD82E80E064EBCCDFE82E8B
:1001A00080E064EBC8DFF82E16C080E06D2D89DF9B
:1001B00081E06E2D86DF82E06F2D83DF198220E0E3
:1001C00030E089818F5F89832F5F3F4F87E2203145
:1001D0003807B9F71150112341F701500023A1F658
:1001E000C39A81E06EE1A7DF90E068EE73E017D07C
:1001F0009C01442737FD4095542F198207C08981FF
:100200008F5F898321503040404050402115310597
:1002100041055105A1F788B3807F88BBB0CF552732
:10022000002480FF02C0060E571F660F771F61155E
:10023000710521F096958795009799F7952F802D58
:10024000089597FB092E07260AD077FD04D00CD01D
:1002500006D000201AF4709561957F4F0895F6F747
:10026000909581959F4F0895AA1BBB1B51E107C034
:10027000AA1FBB1FA617B70710F0A61BB70B881F36
:10028000991F5A95A9F780959095BC01CD010895C5
:10029000A0E0B0E0EDE4F1E090C0EC01A880B9800E
:1002A000CA80DB80A114B104C104D10441F484E20A
:1002B000A82E89EDB82E8BE5C82E87E0D82EC60172
:1002C000B5012DE133EF41E050E054D027EA31E4AD
:1002D00040E050E036D07B018C01C601B5012DE134
:1002E00033EF41E050E046D0CA01B9012CEE34EFC3
:1002F0004FEF5FEF26D06E0D7F1D801F911F97FF80
:1003000004C06150704080409048688379838A833C
:100310009B839B013F77C901CDB7DEB7EAE069C097
:10032000B7DF089580E690E0B3DF0895A0E0B0E085
:100330008093600090936100A0936200B09363008B
:100340000895FF27EE27BB27AA2760FF04C0A20F4E
:10035000B31FE41FF51F220F331F441F551F96952F
:1003600087957795679589F70097760771F7CF019D
:10037000BD01089597FB092E05260ED057FD04D028
:100380004BD00AD0001C38F45095409530952195FB
:100390003F4F4F4F5F4F0895F6F7909580957095BA
:1003A00061957F4F8F4F9F4F08952F923F924F92AD
:1003B0005F926F927F928F929F92AF92BF92CF92F5
:1003C000DF92EF92FF920F931F93CF93DF93CDB7FE
:1003D000DEB7CA1BDB0B0FB6F894DEBF0FBECDBF76
:1003E00009942A88398848885F846E847D848C8447
:1003F0009B84AA84B984C884DF80EE80FD800C8150
:100400001B81AA81B981CE0FD11D0FB6F894DEBF32
:100410000FBECDBFED010895A1E21A2EAA1BBB1B92
:10042000FD010DC0AA1FBB1FEE1FFF1FA217B307C0
:10043000E407F50720F0A21BB30BE40BF50B661FD6
:10044000771F881F991F1A9469F76095709580959A
:1004500090959B01AC01BD01CF010895F894FFCFA9
:040460000100000097
:00000001FF
